:1000000019C033C032C031C030C02FC02EC02DC087
:100010002CC02BC02AC029C028C027C026C025C09C
:10002000C5C123C022C021C020C05CC21EC01DC0EB
:100030001CC01BC011241FBECFEFD4E0DEBFCDBF5C
:1000400011E0A0E0B1E0EAE2F7E002C005900D9215
:10005000A635B107D9F711E0A6E5B1E001C01D92C0
:10006000A536B107E1F75BD05EC3CACF80915801D6
:10007000813081F45B9810926E001092890010928A
:1000800088008FEF90E090938B0080938A0010920D
:10009000B30008959091560180910001891778F47A
:1000A0005B9810926E001092890010928800109256
:1000B0008B0010928A008FEF8093B30008952091F7
:1000C00056018091000130E090E00397281739072E
:1000D00024F481E080936E005B9A0895809157012B
:1000E0008130C9F0813018F08230C1F416C080919F
:1000F000590190915A01895B9B4030F010925A014E
:10010000109259015C9808958091590190915A017B
:10011000815D974018F05C9A08955C98089537D1F6
:10012000B8D13FD278944AD21AD191D09FDFD6DF8E
:1001300051D2FBCF80FF02C0419A01C0419881FF9C
:1001400002C0409A01C0409882FF02C05A9A01C082
:100150005A9883FF02C05F9A08955F9808951F938D
:10016000182F429A82958F70E5DF4298429A812F2C
:10017000E1DF429885E88A95F1F71F910895439849
:10018000EEDF0895439AEBDF08950F931F93CF930B
:10019000DF93EC0100EA1FE005C02196F3DFC80100
:1001A0000197F1F788818823C1F7DF91CF911F91E3
:1001B0000F9108956295660F660F607C680F862F19
:1001C0008068DDDF089581E0DADF80EA9FE0019753
:1001D000F1F7089582E0D3DF80EA9FE00197F1F71D
:1001E00008951F93CF93DF93399A389A529A579A6A
:1001F0003A9A3B9A80E395E70197F1F74398429842
:1002000010E0C0E1D7E2429A83E094DF4298CE0149
:100210000197F1F71F5F1330B1F7429A82E08ADF4E
:10022000429880ED97E00197F1F788E2A8DF88E037
:10023000A6DF81E0A4DF80EA9FE00197F1F786E086
:100240009EDF8CE09CDFDF91CF911F9108950F938B
:100250001F93DF93CF93CDB7DEB72A970FB6F894ED
:10026000DEBF0FBECDBF90915B0180915601981704
:1002700099F08091560190E08E010F5F1F4FB801F9
:100280004AE050E021D282E060E094DFC8017DDFE7
:100290008091560180935B0190915C0180910001F7
:1002A000981799F08091000190E08E010F5F1F4F29
:1002B000B8014AE050E008D289E060E07BDFC80185
:1002C00064DF8091000180935C01909154018091E2
:1002D00057019817C9F08DE061E06CDF80915701FC
:1002E000813041F0813018F0823051F406C081E055
:1002F00091E005C085E091E002C089E091E045DF32
:100300008091570180935401209153018BB130E0CB
:1003100090E08870907028173907B1F085E061E0AF
:1003200049DF80915801813019F48DE091E007C0D8
:100330005B9B03C085E091E002C081E191E025DF95
:100340008BB18870809353012A960FB6F894DEBF64
:100350000FBECDBFCF91DF911F910F91089533DF75
:1003600080E060E027DF86E191E00FDF84E060E07D
:1003700021DF8FED07DF8BE060E01CDF8FED02DF18
:1003800080E061E017DF84E291E0FFDE089529DF7D
:100390001ADF82E060E00EDF85E391E0F6DE80E0C8
:1003A00061E008DF82E491E0F0DE08951F920F9291
:1003B0000FB60F9211248F939F9380915D01882334
:1003C00021F0813009F055C028C0809188009091BB
:1003D00089008F3F910530F48091880090918900C9
:1003E000019626C080918A0090918B008F3F9105E5
:1003F00030F480918A0090918B00019629C0809101
:10040000B3008F3F21F08091B3008F5F2DC08091AA
:100410005D018F5F80935D012CC080918800909179
:100420008900892B51F08091880090918900019773
:1004300090938900809388001CC080918A009091DD
:100440008B00892B51F080918A0090918B0001974D
:1004500090938B0080938A000CC08091B300882316
:1004600031F08091B30081508093B30002C01092AC
:100470005D018091590190915A01019690935A0122
:10048000809359019F918F910F900FBE0F901F90F5
:10049000189584B18E6084B9299A80ED97E028EC94
:1004A00030E0F9013197F1F70197D9F72A9A80EDF9
:1004B00097E028EC30E0F9013197F1F70197D9F78F
:1004C0002B9A81EA8093800083E08093810081E809
:1004D0008093B00084E08093B10085BD81E080937B
:1004E0006E0008951F920F920FB60F9211242F9352
:1004F0003F934F935F936F937F938F939F93AF93AC
:10050000BF93EF93FF932091780040917900942F4F
:1005100080E030E0822B932BE0915F01F09160014D
:1005200022E330E0AC01429FC001439F900D529FF7
:10053000900D112466E670E0B4D0E60FF71FF0933B
:100540006001E0935F0180915E018F5F80935E01A7
:1005500080915E01843679F480915F019091600111
:1005600064E670E08AD06093560110925E011092AA
:10057000600110925F0180917A00806480937A001C
:10058000FF91EF91BF91AF919F918F917F916F916B
:100590005F914F913F912F910F900FBE0F901F9041
:1005A00018953C983D98EAE7F0E08FE8808384E472
:1005B00080937C0080818064808308958AB1886103
:1005C0008AB98BB180668BB92698279885B1806CE3
:1005D00085B908954D9919C0809100018A35A8F414
:1005E00080916101909162010196909362018093E4
:1005F0006101895B9B404CF0809100018F5F80938B
:10060000000110926201109261014E9919C080910F
:1006100000018932A8F080916101909162010196F8
:100620009093620180936101895B9B404CF08091C3
:1006300000018150809300011092620110926101CB
:100640001E990AC08091580190E0813009F091E034
:10065000909358011E9BFECF1F990EC080915701A9
:10066000823030F4809157018F5F8093570102C030
:10067000109257011F9BFECF0895AA1BBB1B51E18F
:1006800007C0AA1FBB1FA617B70710F0A61BB70B02
:10069000881F991F5A95A9F780959095BC01CD01A7
:1006A000089597FB092E07260AD077FD04D0E5DFD1
:1006B00006D000201AF4709561957F4F0895F6F7E3
:1006C000909581959F4F0895FB019F01E8944230DA
:1006D000BCF04532ACF44A3029F497FB1EF49095F7
:1006E00081959F4F642F7727C8DF805D8A330CF098
:1006F000895D8193CB010097A9F716F45DE25193D0
:100700001082C90100C0DC01FC01672F71917723C1
:10071000E1F7329704C07C916D9370836291AE17BC
:0A072000BF07C8F30895F894FFCF57
:10072A0032415554004F4E20004F464600464F4630
:10073A00004F46462000413A78782A4320443A78C6
:10074A00782A4300484541543A4F46462041495287
:10075A003A4F46460053796E657267696120505771
:10076A0052005779747261776961726B61207630D1
:06077A002E310005050010
:00000001FF
