:1000000019C02BC02AC029C028C027C026C025C0BF
:1000100024C023C022C021C020C01FC01EC01DC0DC
:100020001CC01BC01AC019C018C017C016C015C00C
:1000300014C013C011241FBECFEFD4E0DEBFCDBF6C
:1000400011E0A0E0B1E0E0EDF1E002C005900D921A
:10005000AE31B107D9F72AD0B9C0D2CF84B18E6002
:1000600084B9299A80ED97E028EC30E0F9013197C6
:10007000F1F70197D9F72A9A80ED97E028EC30E064
:10008000F9013197F1F70197D9F72B9A089568D0C4
:1000900059D082E060E04DD080E091E035D080E042
:1000A00061E047D08DE091E02FD00895F0DFD6DFFA
:1000B000FFCF80FF02C0419A01C0419881FF02C07A
:1000C000409A01C0409882FF02C05A9A01C05A98D3
:1000D00083FF02C05F9A08955F9808951F93182FB9
:1000E000429A82958F70E5DF4298429A812FE1DF34
:1000F000429885E88A95F1F71F9108954398EEDFBD
:100100000895439AEBDF08950F931F93CF93DF93E6
:10011000EC0100EA1FE005C02196F3DFC80101975A
:10012000F1F788818823C1F7DF91CF911F910F915B
:1001300008956295660F660F607C680F862F806851
:10014000DDDF089581E0DADF80EA9FE00197F1F7D3
:10015000089582E0D3DF80EA9FE00197F1F70895E8
:100160001F93CF93DF93399A389A529A579A3A9AB3
:100170003B9A80E395E70197F1F74398429810E0A6
:10018000C0E1D7E2429A83E094DF4298CE01019722
:10019000F1F71F5F1330B1F7429A82E08ADF42988D
:1001A00080ED97E00197F1F788E2A8DF88E0A6DF0D
:1001B00081E0A4DF80EA9FE00197F1F786E09EDF0F
:1001C0008CE09CDFDF91CF911F910895F894FFCFD1
:1001D00053796E6572676961205057520057797480
:0E01E0007261776961726B612076302E31009A
:00000001FF
