:1000000019C033C032C031C030C02FC02EC02DC087
:100010002CC02BC02AC029C028C027C026C025C09C
:100020004EC023C022C021C020C0C0C01EC01DC001
:100030001CC01BC011241FBECFEFD4E0DEBFCDBF5C
:1000400011E0A0E0B1E0E2E0F6E002C005900D9220
:10005000A035B107D9F711E0A0E5B1E001C01D92CC
:10006000A635B107E1F7DFD1CAC2CACF84B18E602D
:1000700084B9299A80ED97E028EC30E0F9013197B6
:10008000F1F70197D9F72A9A80ED97E028EC30E054
:10009000F9013197F1F70197D9F72B9A81EA80930B
:1000A000800083E08093810081E88093B00084E049
:1000B0008093B10085BD81E080936E0008951F920A
:1000C0000F920FB60F9211248F939F93809153013B
:1000D000882321F0813009F055C028C08091880024
:1000E000909189008F3F910530F480918800909124
:1000F0008900019626C080918A0090918B008F3FE5
:10010000910530F480918A0090918B00019629C06E
:100110008091B3008F3F21F08091B3008F5F2DC09D
:10012000809153018F5F809353012CC08091880090
:1001300090918900892B51F08091880090918900DD
:10014000019790938900809388001CC080918A0059
:1001500090918B00892B51F080918A0090918B00B7
:10016000019790938B0080938A000CC08091B3001C
:10017000882331F08091B30081508093B30002C096
:10018000109253019F918F910F900FBE0F901F906F
:1001900018953C983D98EAE7F0E08FEA808384E484
:1001A00080937C0080818064808308951F920F92E9
:1001B0000FB60F9211242F933F934F935F936F933A
:1001C0007F938F939F93AF93BF932091780040913B
:1001D0007900942F80E030E0822B932B24EF31E0E4
:1001E000AC01429FC001439F900D529F900D11247E
:1001F00060E074E0AED160935001BF91AF919F91E8
:100200008F917F916F915F914F913F912F910F90BF
:100210000FBE0F901F9018951AB88AB188618AB9DD
:100220008BB180668BB92698279885B1806C85B98B
:1002300008959091500180914D01891720F080918F
:1002400052018130A1F45B9810926E0010928900E7
:100250001092880010928B0010928A008FEF80938A
:10026000B300089581E080936E005B9A0895209119
:10027000500180914D0130E090E003972817390735
:100280008CF308950FC080914D018A35F8F42F5FEB
:100290003F4F83E12938380739F480914D018F5F52
:1002A00080934D0120E030E04D99EDCF0FC080915B
:1002B0004D01893278F02F5F3F4F83E129383807AD
:1002C00039F480914D01815080934D0120E030E060
:1002D0004E99EDCF08950F931F93DF93CF93CDB732
:1002E000DEB72A970FB6F894DEBF0FBECDBF909150
:1002F000540180915001981799F08091500190E03D
:100300008E010F5F1F4FB8014AE050E049D182E0F3
:1003100060E0D2D0C801BBD08091500180935401DD
:100320009091550180914D01981799F080914D0160
:1003300090E08E010F5F1F4FB8014AE050E030D1CE
:1003400089E060E0B9D0C801A2D080914D018093CE
:10035000550190914F01809151019817C9F08DE09E
:1003600061E0AAD080915101813041F0813018F0D4
:10037000823051F406C080E091E005C084E091E055
:1003800002C087E091E083D08091510180934F01BA
:1003900020914E018BB130E090E08870907028176A
:1003A000390779F085E061E087D05B9B03C08CE082
:1003B00091E002C087E091E06AD08BB188708093B1
:1003C0004E012A960FB6F894DEBF0FBECDBFCF9177
:1003D000DF911F910F91089578D080E060E06CD09C
:1003E00080E191E054D084E060E066D08FED4CD0A5
:1003F0008BE060E061D08FED47D080E061E05CD0C1
:100400008EE191E044D008956ED05FD082E060E04C
:1004100053D08FE291E03BD080E061E04DD08CE39F
:1004200091E035D00895F0DF21DE7894B2DED4DF9C
:1004300052DFFFDE27DFFCCF80FF02C0419A01C000
:10044000419881FF02C0409A01C0409882FF02C0DB
:100450005A9A01C05A9883FF02C05F9A08955F9824
:1004600008951F93182F429A82958F70E5DF429866
:10047000429A812FE1DF429885E88A95F1F71F9132
:1004800008954398EEDF0895439AEBDF08950F93A4
:100490001F93CF93DF93EC0100EA1FE005C0219684
:1004A000F3DFC8010197F1F788818823C1F7DF9155
:1004B000CF911F910F9108956295660F660F607C32
:1004C000680F862F8068DDDF089581E0DADF80EA3B
:1004D0009FE00197F1F7089582E0D3DF80EA9FE083
:1004E0000197F1F708951F93CF93DF93399A389AC4
:1004F000529A579A3A9A3B9A80E395E70197F1F717
:100500004398429810E0C0E1D7E2429A83E094DF3A
:100510004298CE010197F1F71F5F1330B1F7429A6D
:1005200082E08ADF429880ED97E00197F1F788E258
:10053000A8DF88E0A6DF81E0A4DF80EA9FE00197E2
:10054000F1F786E09EDF8CE09CDFDF91CF911F9179
:10055000089597FB092E07260AD077FD04D00CD00A
:1005600006D000201AF4709561957F4F0895F6F734
:10057000909581959F4F0895AA1BBB1B51E107C021
:10058000AA1FBB1FA617B70710F0A61BB70B881F23
:10059000991F5A95A9F780959095BC01CD010895B2
:1005A000FB019F01E8944230BCF04532ACF44A3084
:1005B00029F497FB1EF4909581959F4F642F772720
:1005C000DBDF805D8A330CF0895D8193CB0100977E
:1005D000A9F716F45DE251931082C90100C0DC0155
:1005E000FC01672F71917723E1F7329704C07C916A
:1005F0006D9370836291AE17BF07C8F30895F894A6
:02060000FFCF2A
:10060200415554004F4E004F464620004F4E2000A9
:10061200413A78782A4320443A78782A4300484578
:1006220041543A4F4646204149523A4F46460053BA
:10063200796E6572676961205057520057797472FA
:1006420061776961726B612076302E310032050567
:00000001FF
